---
layout: post
title:  "tcpdump"
date:   2022-04-07
categories: Linux
---

特点
  - 1988年开始写
  - 利用libpcap库来抓包。libpcap的windows版叫WinPcap，但自2013年起，WinPcap不再维护，Npcap成为了WinPap的替代者

常用选项：

- -i 接口
- -vvv 详细
- -x 16进制
- -X 16进制+ASCII
- -c 包数
- -n 不查ip地址
- -nn 不查ip地址，并且不查端口
- -w 保存
- -r 从文件里读


~ sudo tcpdump -i wlp2s0 -vvv -X port 53 -nn -c 1 

```
tcpdump: listening on wlp2s0, link-type EN10MB (Ethernet), snapshot length 262144 bytes
17:41:02.710093 IP (tos 0x0, ttl 64, id 30176, offset 0, flags [none], proto UDP (17), length 82)
    192.168.1.106.59491 > 114.114.114.114.53: [bad udp cksum 0xa746 -> 0x0f14!] 55119+ [1au] A? www.baidu.com. ar: . OPT UDPsize=1232 [COOKIE cd02588769783943] (54)
	0x0000:  4500 0052 75e0 0000 4011 5dc4 c0a8 016a  E..Ru...@.]....j
	0x0010:  7272 7272 e863 0035 003e a746 d74f 0120  rrrr.c.5.>.F.O..
	0x0020:  0001 0000 0000 0001 0377 7777 0562 6169  .........www.bai
	0x0030:  6475 0363 6f6d 0000 0100 0100 0029 04d0  du.com.......)..
	0x0040:  0000 0000 000c 000a 0008 cd02 5887 6978  ............X.ix
	0x0050:  3943                                     9C
1 packet captured
2 packets received by filter
0 packets dropped by kernel
```


~ 从文件里读： tcpdump -r test.pcap -nn -vvv -X

```
reading from file test.pcap, link-type EN10MB (Ethernet), snapshot length 262144
17:42:10.249634 IP (tos 0x0, ttl 64, id 53574, offset 0, flags [none], proto UDP (17), length 82)
    192.168.1.106.44265 > 114.114.114.114.53: [bad udp cksum 0xa746 -> 0x17ba!] 15451+ [1au] A? www.baidu.com. ar: . OPT UDPsize=1232 [COOKIE 231d42ac7097bfad] (54)
	0x0000:  4500 0052 d146 0000 4011 025e c0a8 016a  E..R.F..@..^...j
	0x0010:  7272 7272 ace9 0035 003e a746 3c5b 0120  rrrr...5.>.F<[..
	0x0020:  0001 0000 0000 0001 0377 7777 0562 6169  .........www.bai
	0x0030:  6475 0363 6f6d 0000 0100 0100 0029 04d0  du.com.......)..
	0x0040:  0000 0000 000c 000a 0008 231d 42ac 7097  ..........#.B.p.
	0x0050:  bfad                                     ..
17:42:10.264686 IP (tos 0x0, ttl 60, id 63431, offset 0, flags [none], proto UDP (17), length 299)
    114.114.114.114.53 > 192.168.1.106.44265: [udp sum ok] 15451 q: A? www.baidu.com. 3/5/6 www.baidu.com. [11m9s] CNAME www.a.shifen.com., www.a.shifen.com. [31s] A 182.61.200.6, www.a.shifen.com. [31s] A 182.61.200.7 ns: a.shifen.com. [13m30s] NS ns2.a.shifen.com., a.shifen.com. [13m30s] NS ns5.a.shifen.com., a.shifen.com. [13m30s] NS ns3.a.shifen.com., a.shifen.com. [13m30s] NS ns4.a.shifen.com., a.shifen.com. [13m30s] NS ns1.a.shifen.com. ar: ns3.a.shifen.com. [30s] A 112.80.255.253, ns5.a.shifen.com. [26s] A 180.76.76.95, ns4.a.shifen.com. [4m16s] A 14.215.177.229, ns1.a.shifen.com. [1m9s] A 110.242.68.42, ns2.a.shifen.com. [3m23s] A 220.181.33.32, . OPT UDPsize=4096 (271)
	0x0000:  4500 012b f7c7 0000 3c11 df03 7272 7272  E..+....<...rrrr
	0x0010:  c0a8 016a 0035 ace9 0117 ef21 3c5b 8180  ...j.5.....!<[..
	0x0020:  0001 0003 0005 0006 0377 7777 0562 6169  .........www.bai
	0x0030:  6475 0363 6f6d 0000 0100 01c0 0c00 0500  du.com..........
	0x0040:  0100 0002 9d00 0f03 7777 7701 6106 7368  ........www.a.sh
	0x0050:  6966 656e c016 c02b 0001 0001 0000 001f  ifen...+........
	0x0060:  0004 b63d c806 c02b 0001 0001 0000 001f  ...=...+........
	0x0070:  0004 b63d c807 c02f 0002 0001 0000 032a  ...=.../.......*
	0x0080:  0006 036e 7332 c02f c02f 0002 0001 0000  ...ns2././......
	0x0090:  032a 0006 036e 7335 c02f c02f 0002 0001  .*...ns5././....
	0x00a0:  0000 032a 0006 036e 7333 c02f c02f 0002  ...*...ns3././..
	0x00b0:  0001 0000 032a 0006 036e 7334 c02f c02f  .....*...ns4././
	0x00c0:  0002 0001 0000 032a 0006 036e 7331 c02f  .......*...ns1./
	0x00d0:  c08a 0001 0001 0000 001e 0004 7050 fffd  ............pP..
	0x00e0:  c078 0001 0001 0000 001a 0004 b44c 4c5f  .x...........LL_
	0x00f0:  c09c 0001 0001 0000 0100 0004 0ed7 b1e5  ................
	0x0100:  c0ae 0001 0001 0000 0045 0004 6ef2 442a  .........E..n.D*
	0x0110:  c066 0001 0001 0000 00cb 0004 dcb5 2120  .f............!.
	0x0120:  0000 2910 0000 0000 0000 00              ..)........       
```
